{
  "_format": "hh-sol-artifact-1",
  "contractName": "Voting",
  "sourceName": "contracts/Voting.sol",
  "abi": [
    {
      "inputs": [],
      "stateMutability": "nonpayable",
      "type": "constructor"
    },
    {
      "anonymous": false,
      "inputs": [
        {
          "indexed": true,
          "internalType": "uint256",
          "name": "_candidateId",
          "type": "uint256"
        }
      ],
      "name": "votedEvent",
      "type": "event"
    },
    {
      "inputs": [
        {
          "internalType": "string",
          "name": "_name",
          "type": "string"
        }
      ],
      "name": "addCandidate",
      "outputs": [],
      "stateMutability": "nonpayable",
      "type": "function"
    },
    {
      "inputs": [
        {
          "internalType": "uint256",
          "name": "",
          "type": "uint256"
        }
      ],
      "name": "candidates",
      "outputs": [
        {
          "internalType": "uint256",
          "name": "id",
          "type": "uint256"
        },
        {
          "internalType": "string",
          "name": "name",
          "type": "string"
        },
        {
          "internalType": "uint256",
          "name": "voteCount",
          "type": "uint256"
        },
        {
          "internalType": "bool",
          "name": "isActive",
          "type": "bool"
        }
      ],
      "stateMutability": "view",
      "type": "function"
    },
    {
      "inputs": [],
      "name": "candidatesCount",
      "outputs": [
        {
          "internalType": "uint256",
          "name": "",
          "type": "uint256"
        }
      ],
      "stateMutability": "view",
      "type": "function"
    },
    {
      "inputs": [],
      "name": "owner",
      "outputs": [
        {
          "internalType": "address",
          "name": "",
          "type": "address"
        }
      ],
      "stateMutability": "view",
      "type": "function"
    },
    {
      "inputs": [
        {
          "internalType": "uint256",
          "name": "_candidateId",
          "type": "uint256"
        }
      ],
      "name": "removeCandidate",
      "outputs": [],
      "stateMutability": "nonpayable",
      "type": "function"
    },
    {
      "inputs": [
        {
          "internalType": "uint256",
          "name": "_candidateId",
          "type": "uint256"
        }
      ],
      "name": "vote",
      "outputs": [],
      "stateMutability": "nonpayable",
      "type": "function"
    },
    {
      "inputs": [
        {
          "internalType": "address",
          "name": "",
          "type": "address"
        }
      ],
      "name": "voters",
      "outputs": [
        {
          "internalType": "bool",
          "name": "",
          "type": "bool"
        }
      ],
      "stateMutability": "view",
      "type": "function"
    }
  ],
  "bytecode": "0x608060405234801561001057600080fd5b50336000806101000a81548173ffffffffffffffffffffffffffffffffffffffff021916908373ffffffffffffffffffffffffffffffffffffffff160217905550610f9f806100606000396000f3fe608060405234801561001057600080fd5b506004361061007d5760003560e01c80633477ee2e1161005b5780633477ee2e146100d8578063462e91ec1461010b5780638da5cb5b14610127578063a3ec138d146101455761007d565b80630121b93f1461008257806309e9d7e21461009e5780632d35a8a2146100ba575b600080fd5b61009c600480360381019061009791906106a2565b610175565b005b6100b860048036038101906100b391906106a2565b610306565b005b6100c2610417565b6040516100cf91906106de565b60405180910390f35b6100f260048036038101906100ed91906106a2565b61041d565b60405161010294939291906107a4565b60405180910390f35b61012560048036038101906101209190610925565b6104e2565b005b61012f610614565b60405161013c91906109af565b60405180910390f35b61015f600480360381019061015a91906109f6565b610638565b60405161016c9190610a23565b60405180910390f35b600160003373ffffffffffffffffffffffffffffffffffffffff1673ffffffffffffffffffffffffffffffffffffffff16815260200190815260200160002060009054906101000a900460ff1615610202576040517f08c379a00000000000000000000000000000000000000000000000000000000081526004016101f990610a8a565b60405180910390fd5b60008111801561021457506003548111155b610253576040517f08c379a000000000000000000000000000000000000000000000000000000000815260040161024a90610af6565b60405180910390fd5b60018060003373ffffffffffffffffffffffffffffffffffffffff1673ffffffffffffffffffffffffffffffffffffffff16815260200190815260200160002060006101000a81548160ff0219169083151502179055506002600082815260200190815260200160002060020160008154809291906102d190610b45565b9190505550807ffff3c900d938d21d0990d786e819f29b8d05c1ef587b462b939609625b684b1660405160405180910390a250565b60008054906101000a900473ffffffffffffffffffffffffffffffffffffffff1673ffffffffffffffffffffffffffffffffffffffff163373ffffffffffffffffffffffffffffffffffffffff1614610394576040517f08c379a000000000000000000000000000000000000000000000000000000000815260040161038b90610bff565b60405180910390fd5b6000811180156103a657506003548111155b6103e5576040517f08c379a00000000000000000000000000000000000000000000000000000000081526004016103dc90610c6b565b60405180910390fd5b60006002600083815260200190815260200160002060030160006101000a81548160ff02191690831515021790555050565b60035481565b600260205280600052604060002060009150905080600001549080600101805461044690610cba565b80601f016020809104026020016040519081016040528092919081815260200182805461047290610cba565b80156104bf5780601f10610494576101008083540402835291602001916104bf565b820191906000526020600020905b8154815290600101906020018083116104a257829003601f168201915b5050505050908060020154908060030160009054906101000a900460ff16905084565b60008054906101000a900473ffffffffffffffffffffffffffffffffffffffff1673ffffffffffffffffffffffffffffffffffffffff163373ffffffffffffffffffffffffffffffffffffffff1614610570576040517f08c379a000000000000000000000000000000000000000000000000000000000815260040161056790610bff565b60405180910390fd5b6003600081548092919061058390610b45565b91905055506040518060800160405280600354815260200182815260200160008152602001600115158152506002600060035481526020019081526020016000206000820151816000015560208201518160010190816105e39190610e97565b506040820151816002015560608201518160030160006101000a81548160ff02191690831515021790555090505050565b60008054906101000a900473ffffffffffffffffffffffffffffffffffffffff1681565b60016020528060005260406000206000915054906101000a900460ff1681565b6000604051905090565b600080fd5b600080fd5b6000819050919050565b61067f8161066c565b811461068a57600080fd5b50565b60008135905061069c81610676565b92915050565b6000602082840312156106b8576106b7610662565b5b60006106c68482850161068d565b91505092915050565b6106d88161066c565b82525050565b60006020820190506106f360008301846106cf565b92915050565b600081519050919050565b600082825260208201905092915050565b60005b83811015610733578082015181840152602081019050610718565b60008484015250505050565b6000601f19601f8301169050919050565b600061075b826106f9565b6107658185610704565b9350610775818560208601610715565b61077e8161073f565b840191505092915050565b60008115159050919050565b61079e81610789565b82525050565b60006080820190506107b960008301876106cf565b81810360208301526107cb8186610750565b90506107da60408301856106cf565b6107e76060830184610795565b95945050505050565b600080fd5b600080fd5b7f4e487b7100000000000000000000000000000000000000000000000000000000600052604160045260246000fd5b6108328261073f565b810181811067ffffffffffffffff82111715610851576108506107fa565b5b80604052505050565b6000610864610658565b90506108708282610829565b919050565b600067ffffffffffffffff8211156108905761088f6107fa565b5b6108998261073f565b9050602081019050919050565b82818337600083830152505050565b60006108c86108c384610875565b61085a565b9050828152602081018484840111156108e4576108e36107f5565b5b6108ef8482856108a6565b509392505050565b600082601f83011261090c5761090b6107f0565b5b813561091c8482602086016108b5565b91505092915050565b60006020828403121561093b5761093a610662565b5b600082013567ffffffffffffffff81111561095957610958610667565b5b610965848285016108f7565b91505092915050565b600073ffffffffffffffffffffffffffffffffffffffff82169050919050565b60006109998261096e565b9050919050565b6109a98161098e565b82525050565b60006020820190506109c460008301846109a0565b92915050565b6109d38161098e565b81146109de57600080fd5b50565b6000813590506109f0816109ca565b92915050565b600060208284031215610a0c57610a0b610662565b5b6000610a1a848285016109e1565b91505092915050565b6000602082019050610a386000830184610795565b92915050565b7f596f75206861766520616c726561647920766f7465642e000000000000000000600082015250565b6000610a74601783610704565b9150610a7f82610a3e565b602082019050919050565b60006020820190508181036000830152610aa381610a67565b9050919050565b7f496e76616c69642063616e6469646174652e0000000000000000000000000000600082015250565b6000610ae0601283610704565b9150610aeb82610aaa565b602082019050919050565b60006020820190508181036000830152610b0f81610ad3565b9050919050565b7f4e487b7100000000000000000000000000000000000000000000000000000000600052601160045260246000fd5b6000610b508261066c565b91507fffffffffffffffffffffffffffffffffffffffffffffffffffffffffffffffff8203610b8257610b81610b16565b5b600182019050919050565b7f4f6e6c7920746865206f776e65722063616e20706572666f726d20746869732060008201527f616374696f6e2e00000000000000000000000000000000000000000000000000602082015250565b6000610be9602783610704565b9150610bf482610b8d565b604082019050919050565b60006020820190508181036000830152610c1881610bdc565b9050919050565b7f496e76616c69642063616e6469646174652049442e0000000000000000000000600082015250565b6000610c55601583610704565b9150610c6082610c1f565b602082019050919050565b60006020820190508181036000830152610c8481610c48565b9050919050565b7f4e487b7100000000000000000000000000000000000000000000000000000000600052602260045260246000fd5b60006002820490506001821680610cd257607f821691505b602082108103610ce557610ce4610c8b565b5b50919050565b60008190508160005260206000209050919050565b60006020601f8301049050919050565b600082821b905092915050565b600060088302610d4d7fffffffffffffffffffffffffffffffffffffffffffffffffffffffffffffffff82610d10565b610d578683610d10565b95508019841693508086168417925050509392505050565b6000819050919050565b6000610d94610d8f610d8a8461066c565b610d6f565b61066c565b9050919050565b6000819050919050565b610dae83610d79565b610dc2610dba82610d9b565b848454610d1d565b825550505050565b600090565b610dd7610dca565b610de2818484610da5565b505050565b5b81811015610e0657610dfb600082610dcf565b600181019050610de8565b5050565b601f821115610e4b57610e1c81610ceb565b610e2584610d00565b81016020851015610e34578190505b610e48610e4085610d00565b830182610de7565b50505b505050565b600082821c905092915050565b6000610e6e60001984600802610e50565b1980831691505092915050565b6000610e878383610e5d565b9150826002028217905092915050565b610ea0826106f9565b67ffffffffffffffff811115610eb957610eb86107fa565b5b610ec38254610cba565b610ece828285610e0a565b600060209050601f831160018114610f015760008415610eef578287015190505b610ef98582610e7b565b865550610f61565b601f198416610f0f86610ceb565b60005b82811015610f3757848901518255600182019150602085019450602081019050610f12565b86831015610f545784890151610f50601f891682610e5d565b8355505b6001600288020188555050505b50505050505056fea26469706673582212200fc8693d28e72d9a91bc857331c3759c11dc594f141a4010420adcadf429ae3164736f6c63430008180033",
  "linkReferences": {},
  "deployedLinkReferences": {}
}